{
  "_format": "hh-sol-artifact-1",
  "contractName": "Vigil",
  "sourceName": "contracts/Vigil.sol",
  "abi": [
    {
      "anonymous": false,
      "inputs": [
        {
          "indexed": true,
          "internalType": "address",
          "name": "creator",
          "type": "address"
        },
        {
          "indexed": true,
          "internalType": "string",
          "name": "name",
          "type": "string"
        },
        {
          "indexed": false,
          "internalType": "uint256",
          "name": "index",
          "type": "uint256"
        }
      ],
      "name": "SecretCreated",
      "type": "event"
    },
    {
      "anonymous": false,
      "inputs": [
        {
          "indexed": true,
          "internalType": "address",
          "name": "creator",
          "type": "address"
        },
        {
          "indexed": true,
          "internalType": "string",
          "name": "name",
          "type": "string"
        },
        {
          "indexed": false,
          "internalType": "uint256",
          "name": "index",
          "type": "uint256"
        }
      ],
      "name": "SecretRevealed",
      "type": "event"
    },
    {
      "inputs": [
        {
          "internalType": "address",
          "name": "",
          "type": "address"
        }
      ],
      "name": "_lastSeen",
      "outputs": [
        {
          "internalType": "uint256",
          "name": "",
          "type": "uint256"
        }
      ],
      "stateMutability": "view",
      "type": "function"
    },
    {
      "inputs": [
        {
          "internalType": "uint256",
          "name": "",
          "type": "uint256"
        }
      ],
      "name": "_metas",
      "outputs": [
        {
          "internalType": "address",
          "name": "creator",
          "type": "address"
        },
        {
          "internalType": "string",
          "name": "name",
          "type": "string"
        },
        {
          "internalType": "uint256",
          "name": "longevity",
          "type": "uint256"
        }
      ],
      "stateMutability": "view",
      "type": "function"
    },
    {
      "inputs": [
        {
          "internalType": "string",
          "name": "name",
          "type": "string"
        },
        {
          "internalType": "uint256",
          "name": "longevity",
          "type": "uint256"
        },
        {
          "internalType": "bytes",
          "name": "secret",
          "type": "bytes"
        }
      ],
      "name": "createSecret",
      "outputs": [],
      "stateMutability": "nonpayable",
      "type": "function"
    },
    {
      "inputs": [
        {
          "internalType": "address",
          "name": "owner",
          "type": "address"
        }
      ],
      "name": "getLastSeen",
      "outputs": [
        {
          "internalType": "uint256",
          "name": "",
          "type": "uint256"
        }
      ],
      "stateMutability": "view",
      "type": "function"
    },
    {
      "inputs": [
        {
          "internalType": "uint256",
          "name": "offset",
          "type": "uint256"
        },
        {
          "internalType": "uint256",
          "name": "count",
          "type": "uint256"
        }
      ],
      "name": "getMetas",
      "outputs": [
        {
          "components": [
            {
              "internalType": "address",
              "name": "creator",
              "type": "address"
            },
            {
              "internalType": "string",
              "name": "name",
              "type": "string"
            },
            {
              "internalType": "uint256",
              "name": "longevity",
              "type": "uint256"
            }
          ],
          "internalType": "struct Vigil.SecretMetadata[]",
          "name": "",
          "type": "tuple[]"
        }
      ],
      "stateMutability": "view",
      "type": "function"
    },
    {
      "inputs": [],
      "name": "randomSecret",
      "outputs": [],
      "stateMutability": "nonpayable",
      "type": "function"
    },
    {
      "inputs": [],
      "name": "refreshSecrets",
      "outputs": [],
      "stateMutability": "nonpayable",
      "type": "function"
    },
    {
      "inputs": [
        {
          "internalType": "uint256",
          "name": "index",
          "type": "uint256"
        }
      ],
      "name": "revealSecret",
      "outputs": [
        {
          "internalType": "bytes",
          "name": "",
          "type": "bytes"
        }
      ],
      "stateMutability": "nonpayable",
      "type": "function"
    }
  ],
  "bytecode": "0x608060405234801561001057600080fd5b50611802806100206000396000f3fe608060405234801561001057600080fd5b50600436106100885760003560e01c8063975136901161005b578063975136901461011357806398df67c614610143578063cafc24ff14610173578063fd9c5316146101a557610088565b8063413c0fd81461008d5780634aec3a32146100a957806361b94576146100d957806388193a2514610109575b600080fd5b6100a760048036038101906100a29190610c6e565b6101af565b005b6100c360048036038101906100be9190610cf9565b61032b565b6040516100d09190610f1a565b60405180910390f35b6100f360048036038101906100ee9190610f68565b61058b565b6040516101009190610fa4565b60405180910390f35b6101116105d4565b005b61012d60048036038101906101289190610f68565b6105de565b60405161013a9190610fa4565b60405180910390f35b61015d60048036038101906101589190610fbf565b6105f6565b60405161016a9190611041565b60405180910390f35b61018d60048036038101906101889190610fbf565b610876565b60405161019c939291906110bc565b60405180910390f35b6101ad610958565b005b6101b76109c0565b600060405180606001604052803373ffffffffffffffffffffffffffffffffffffffff16815260200185815260200184815250908060018154018082558091505060019003906000526020600020906003020160009091909190915060008201518160000160006101000a81548173ffffffffffffffffffffffffffffffffffffffff021916908373ffffffffffffffffffffffffffffffffffffffff160217905550602082015181600101908161026f9190611306565b506040820151816002015550506001819080600181540180825580915050600190039060005260206000200160009091909190915090816102b09190611433565b50826040516102bf9190611541565b60405180910390203373ffffffffffffffffffffffffffffffffffffffff167f12a499eb02c8cf9494d3a624d30d5f39809807866252f6783a9ad28431d52e9560016000805490506103119190611587565b60405161031e9190610fa4565b60405180910390a3505050565b6060600080549050831061039557600067ffffffffffffffff81111561035457610353610a6c565b5b60405190808252806020026020018201604052801561038d57816020015b61037a610a06565b8152602001906001900390816103725790505b509050610585565b6000808054905083856103a891906115bb565b11156103c457836000805490506103bf9190611587565b6103c6565b825b905060008167ffffffffffffffff8111156103e4576103e3610a6c565b5b60405190808252806020026020018201604052801561041d57816020015b61040a610a06565b8152602001906001900390816104025790505b50905060005b8281101561057e576000818761043991906115bb565b8154811061044a576104496115ef565b5b90600052602060002090600302016040518060600160405290816000820160009054906101000a900473ffffffffffffffffffffffffffffffffffffffff1673ffffffffffffffffffffffffffffffffffffffff1673ffffffffffffffffffffffffffffffffffffffff1681526020016001820180546104c990611129565b80601f01602080910402602001604051908101604052809291908181526020018280546104f590611129565b80156105425780601f1061051757610100808354040283529160200191610542565b820191906000526020600020905b81548152906001019060200180831161052557829003601f168201915b50505050508152602001600282015481525050828281518110610568576105676115ef565b5b6020026020010181905250806001019050610423565b5080925050505b92915050565b6000600260008373ffffffffffffffffffffffffffffffffffffffff1673ffffffffffffffffffffffffffffffffffffffff168152602001908152602001600020549050919050565b6105dc6109c0565b565b60026020528060005260406000206000915090505481565b6060600080549050821061063f576040517f08c379a00000000000000000000000000000000000000000000000000000000081526004016106369061166a565b60405180910390fd5b6000808381548110610654576106536115ef565b5b906000526020600020906003020160000160009054906101000a900473ffffffffffffffffffffffffffffffffffffffff169050600080848154811061069d5761069c6115ef565b5b906000526020600020906003020160020154600260008473ffffffffffffffffffffffffffffffffffffffff1673ffffffffffffffffffffffffffffffffffffffff168152602001908152602001600020546106f991906115bb565b90508042101561073e576040517f08c379a0000000000000000000000000000000000000000000000000000000008152600401610735906116d6565b60405180910390fd5b60008481548110610752576107516115ef565b5b90600052602060002090600302016001016040516107709190611779565b60405180910390208273ffffffffffffffffffffffffffffffffffffffff167f08acac239b874e19cf736ed5370e1bc54e17ac10c96028aeaba701c13081d02d866040516107be9190610fa4565b60405180910390a3600184815481106107da576107d96115ef565b5b9060005260206000200180546107ef90611129565b80601f016020809104026020016040519081016040528092919081815260200182805461081b90611129565b80156108685780601f1061083d57610100808354040283529160200191610868565b820191906000526020600020905b81548152906001019060200180831161084b57829003601f168201915b505050505092505050919050565b6000818154811061088657600080fd5b90600052602060002090600302016000915090508060000160009054906101000a900473ffffffffffffffffffffffffffffffffffffffff16908060010180546108cf90611129565b80601f01602080910402602001604051908101604052809291908181526020018280546108fb90611129565b80156109485780601f1061091d57610100808354040283529160200191610948565b820191906000526020600020905b81548152906001019060200180831161092b57829003601f168201915b5050505050908060020154905083565b60006040518060400160405280600681526020017f72616e646f6d000000000000000000000000000000000000000000000000000081525090506109bd81601e426040516020016109a991906117b1565b6040516020818303038152906040526101af565b50565b42600260003373ffffffffffffffffffffffffffffffffffffffff1673ffffffffffffffffffffffffffffffffffffffff16815260200190815260200160002081905550565b6040518060600160405280600073ffffffffffffffffffffffffffffffffffffffff16815260200160608152602001600081525090565b6000604051905090565b600080fd5b600080fd5b600080fd5b600080fd5b6000601f19601f8301169050919050565b7f4e487b7100000000000000000000000000000000000000000000000000000000600052604160045260246000fd5b610aa482610a5b565b810181811067ffffffffffffffff82111715610ac357610ac2610a6c565b5b80604052505050565b6000610ad6610a3d565b9050610ae28282610a9b565b919050565b600067ffffffffffffffff821115610b0257610b01610a6c565b5b610b0b82610a5b565b9050602081019050919050565b82818337600083830152505050565b6000610b3a610b3584610ae7565b610acc565b905082815260208101848484011115610b5657610b55610a56565b5b610b61848285610b18565b509392505050565b600082601f830112610b7e57610b7d610a51565b5b8135610b8e848260208601610b27565b91505092915050565b6000819050919050565b610baa81610b97565b8114610bb557600080fd5b50565b600081359050610bc781610ba1565b92915050565b600067ffffffffffffffff821115610be857610be7610a6c565b5b610bf182610a5b565b9050602081019050919050565b6000610c11610c0c84610bcd565b610acc565b905082815260208101848484011115610c2d57610c2c610a56565b5b610c38848285610b18565b509392505050565b600082601f830112610c5557610c54610a51565b5b8135610c65848260208601610bfe565b91505092915050565b600080600060608486031215610c8757610c86610a47565b5b600084013567ffffffffffffffff811115610ca557610ca4610a4c565b5b610cb186828701610b69565b9350506020610cc286828701610bb8565b925050604084013567ffffffffffffffff811115610ce357610ce2610a4c565b5b610cef86828701610c40565b9150509250925092565b60008060408385031215610d1057610d0f610a47565b5b6000610d1e85828601610bb8565b9250506020610d2f85828601610bb8565b9150509250929050565b600081519050919050565b600082825260208201905092915050565b6000819050602082019050919050565b600073ffffffffffffffffffffffffffffffffffffffff82169050919050565b6000610d9082610d65565b9050919050565b610da081610d85565b82525050565b600081519050919050565b600082825260208201905092915050565b60005b83811015610de0578082015181840152602081019050610dc5565b60008484015250505050565b6000610df782610da6565b610e018185610db1565b9350610e11818560208601610dc2565b610e1a81610a5b565b840191505092915050565b610e2e81610b97565b82525050565b6000606083016000830151610e4c6000860182610d97565b5060208301518482036020860152610e648282610dec565b9150506040830151610e796040860182610e25565b508091505092915050565b6000610e908383610e34565b905092915050565b6000602082019050919050565b6000610eb082610d39565b610eba8185610d44565b935083602082028501610ecc85610d55565b8060005b85811015610f085784840389528151610ee98582610e84565b9450610ef483610e98565b925060208a01995050600181019050610ed0565b50829750879550505050505092915050565b60006020820190508181036000830152610f348184610ea5565b905092915050565b610f4581610d85565b8114610f5057600080fd5b50565b600081359050610f6281610f3c565b92915050565b600060208284031215610f7e57610f7d610a47565b5b6000610f8c84828501610f53565b91505092915050565b610f9e81610b97565b82525050565b6000602082019050610fb96000830184610f95565b92915050565b600060208284031215610fd557610fd4610a47565b5b6000610fe384828501610bb8565b91505092915050565b600081519050919050565b600082825260208201905092915050565b600061101382610fec565b61101d8185610ff7565b935061102d818560208601610dc2565b61103681610a5b565b840191505092915050565b6000602082019050818103600083015261105b8184611008565b905092915050565b61106c81610d85565b82525050565b600082825260208201905092915050565b600061108e82610da6565b6110988185611072565b93506110a8818560208601610dc2565b6110b181610a5b565b840191505092915050565b60006060820190506110d16000830186611063565b81810360208301526110e38185611083565b90506110f26040830184610f95565b949350505050565b7f4e487b7100000000000000000000000000000000000000000000000000000000600052602260045260246000fd5b6000600282049050600182168061114157607f821691505b602082108103611154576111536110fa565b5b50919050565b60008190508160005260206000209050919050565b60006020601f8301049050919050565b600082821b905092915050565b6000600883026111bc7fffffffffffffffffffffffffffffffffffffffffffffffffffffffffffffffff8261117f565b6111c6868361117f565b95508019841693508086168417925050509392505050565b6000819050919050565b60006112036111fe6111f984610b97565b6111de565b610b97565b9050919050565b6000819050919050565b61121d836111e8565b6112316112298261120a565b84845461118c565b825550505050565b600090565b611246611239565b611251818484611214565b505050565b5b818110156112755761126a60008261123e565b600181019050611257565b5050565b601f8211156112ba5761128b8161115a565b6112948461116f565b810160208510156112a3578190505b6112b76112af8561116f565b830182611256565b50505b505050565b600082821c905092915050565b60006112dd600019846008026112bf565b1980831691505092915050565b60006112f683836112cc565b9150826002028217905092915050565b61130f82610da6565b67ffffffffffffffff81111561132857611327610a6c565b5b6113328254611129565b61133d828285611279565b600060209050601f831160018114611370576000841561135e578287015190505b61136885826112ea565b8655506113d0565b601f19841661137e8661115a565b60005b828110156113a657848901518255600182019150602085019450602081019050611381565b868310156113c357848901516113bf601f8916826112cc565b8355505b6001600288020188555050505b505050505050565b60008190508160005260206000209050919050565b601f82111561142e576113ff816113d8565b6114088461116f565b81016020851015611417578190505b61142b6114238561116f565b830182611256565b50505b505050565b61143c82610fec565b67ffffffffffffffff81111561145557611454610a6c565b5b61145f8254611129565b61146a8282856113ed565b600060209050601f83116001811461149d576000841561148b578287015190505b61149585826112ea565b8655506114fd565b601f1984166114ab866113d8565b60005b828110156114d3578489015182556001820191506020850194506020810190506114ae565b868310156114f057848901516114ec601f8916826112cc565b8355505b6001600288020188555050505b505050505050565b600081905092915050565b600061151b82610da6565b6115258185611505565b9350611535818560208601610dc2565b80840191505092915050565b600061154d8284611510565b915081905092915050565b7f4e487b7100000000000000000000000000000000000000000000000000000000600052601160045260246000fd5b600061159282610b97565b915061159d83610b97565b92508282039050818111156115b5576115b4611558565b5b92915050565b60006115c682610b97565b91506115d183610b97565b92508282019050808211156115e9576115e8611558565b5b92915050565b7f4e487b7100000000000000000000000000000000000000000000000000000000600052603260045260246000fd5b7f6e6f207375636820736563726574000000000000000000000000000000000000600082015250565b6000611654600e83611072565b915061165f8261161e565b602082019050919050565b6000602082019050818103600083015261168381611647565b9050919050565b7f6e6f742065787069726564000000000000000000000000000000000000000000600082015250565b60006116c0600b83611072565b91506116cb8261168a565b602082019050919050565b600060208201905081810360008301526116ef816116b3565b9050919050565b6000815461170381611129565b61170d8186611505565b94506001821660008114611728576001811461173d57611770565b60ff1983168652811515820286019350611770565b6117468561115a565b60005b8381101561176857815481890152600182019150602081019050611749565b838801955050505b50505092915050565b600061178582846116f6565b915081905092915050565b6000819050919050565b6117ab6117a682610b97565b611790565b82525050565b60006117bd828461179a565b6020820191508190509291505056fea26469706673582212203c91b74a23b20adadeb45a2410cbf0c8a62db46cb9c017dca435eadb0e61768964736f6c63430008180033",
  "linkReferences": {},
  "deployedLinkReferences": {}
}